{
  "contracts/AuditTrailContract.sol": {
    "AuditTrailContract": {
      "abi": [
        {
          "anonymous": false,
          "inputs": [
            {
              "indexed": true,
              "internalType": "uint256",
              "name": "patientId",
              "type": "uint256"
            },
            {
              "indexed": true,
              "internalType": "address",
              "name": "accessedBy",
              "type": "address"
            },
            {
              "indexed": false,
              "internalType": "uint256",
              "name": "timestamp",
              "type": "uint256"
            }
          ],
          "name": "RecordAccessed",
          "type": "event"
        },
        {
          "anonymous": false,
          "inputs": [
            {
              "indexed": true,
              "internalType": "uint256",
              "name": "patientId",
              "type": "uint256"
            },
            {
              "indexed": true,
              "internalType": "address",
              "name": "updatedBy",
              "type": "address"
            },
            {
              "indexed": false,
              "internalType": "uint256",
              "name": "timestamp",
              "type": "uint256"
            }
          ],
          "name": "RecordUpdated",
          "type": "event"
        },
        {
          "inputs": [
            {
              "internalType": "uint256",
              "name": "patientId",
              "type": "uint256"
            }
          ],
          "name": "logAccess",
          "outputs": [],
          "stateMutability": "nonpayable",
          "type": "function"
        },
        {
          "inputs": [
            {
              "internalType": "uint256",
              "name": "patientId",
              "type": "uint256"
            }
          ],
          "name": "logUpdate",
          "outputs": [],
          "stateMutability": "nonpayable",
          "type": "function"
        }
      ],
      "evm": {
        "bytecode": {
          "linkReferences": {},
          "object": "608060405234801561001057600080fd5b506101df806100206000396000f3fe608060405234801561001057600080fd5b50600436106100365760003560e01c80635f4c5e501461003b578063fe5674bd14610057575b600080fd5b61005560048036038101906100509190610152565b610073565b005b610071600480360381019061006c9190610152565b6100c5565b005b3373ffffffffffffffffffffffffffffffffffffffff16817fdec39eb35dc9ca96737e4515f8a70f5db122e248213ee947b996e1f678ab05b8426040516100ba919061018e565b60405180910390a350565b3373ffffffffffffffffffffffffffffffffffffffff16817f496727e7ed521ba2a42c2bcf87faf2235c5a92e559d1263a411fea7762f4f2604260405161010c919061018e565b60405180910390a350565b600080fd5b6000819050919050565b61012f8161011c565b811461013a57600080fd5b50565b60008135905061014c81610126565b92915050565b60006020828403121561016857610167610117565b5b60006101768482850161013d565b91505092915050565b6101888161011c565b82525050565b60006020820190506101a3600083018461017f565b9291505056fea2646970667358221220892a3b3de8a0d60e309f015a8579d70aed9fe4382102cdf4ff5370407bfe380464736f6c63430008180033",
          "opcodes": "PUSH1 0x80 PUSH1 0x40 MSTORE CALLVALUE DUP1 ISZERO PUSH2 0x10 JUMPI PUSH1 0x0 DUP1 REVERT JUMPDEST POP PUSH2 0x1DF DUP1 PUSH2 0x20 PUSH1 0x0 CODECOPY PUSH1 0x0 RETURN INVALID PUSH1 0x80 PUSH1 0x40 MSTORE CALLVALUE DUP1 ISZERO PUSH2 0x10 JUMPI PUSH1 0x0 DUP1 REVERT JUMPDEST POP PUSH1 0x4 CALLDATASIZE LT PUSH2 0x36 JUMPI PUSH1 0x0 CALLDATALOAD PUSH1 0xE0 SHR DUP1 PUSH4 0x5F4C5E50 EQ PUSH2 0x3B JUMPI DUP1 PUSH4 0xFE5674BD EQ PUSH2 0x57 JUMPI JUMPDEST PUSH1 0x0 DUP1 REVERT JUMPDEST PUSH2 0x55 PUSH1 0x4 DUP1 CALLDATASIZE SUB DUP2 ADD SWAP1 PUSH2 0x50 SWAP2 SWAP1 PUSH2 0x152 JUMP JUMPDEST PUSH2 0x73 JUMP JUMPDEST STOP JUMPDEST PUSH2 0x71 PUSH1 0x4 DUP1 CALLDATASIZE SUB DUP2 ADD SWAP1 PUSH2 0x6C SWAP2 SWAP1 PUSH2 0x152 JUMP JUMPDEST PUSH2 0xC5 JUMP JUMPDEST STOP JUMPDEST CALLER PUSH20 0xFFFFFFFFFFFFFFFFFFFFFFFFFFFFFFFFFFFFFFFF AND DUP2 PUSH32 0xDEC39EB35DC9CA96737E4515F8A70F5DB122E248213EE947B996E1F678AB05B8 TIMESTAMP PUSH1 0x40 MLOAD PUSH2 0xBA SWAP2 SWAP1 PUSH2 0x18E JUMP JUMPDEST PUSH1 0x40 MLOAD DUP1 SWAP2 SUB SWAP1 LOG3 POP JUMP JUMPDEST CALLER PUSH20 0xFFFFFFFFFFFFFFFFFFFFFFFFFFFFFFFFFFFFFFFF AND DUP2 PUSH32 0x496727E7ED521BA2A42C2BCF87FAF2235C5A92E559D1263A411FEA7762F4F260 TIMESTAMP PUSH1 0x40 MLOAD PUSH2 0x10C SWAP2 SWAP1 PUSH2 0x18E JUMP JUMPDEST PUSH1 0x40 MLOAD DUP1 SWAP2 SUB SWAP1 LOG3 POP JUMP JUMPDEST PUSH1 0x0 DUP1 REVERT JUMPDEST PUSH1 0x0 DUP2 SWAP1 POP SWAP2 SWAP1 POP JUMP JUMPDEST PUSH2 0x12F DUP2 PUSH2 0x11C JUMP JUMPDEST DUP2 EQ PUSH2 0x13A JUMPI PUSH1 0x0 DUP1 REVERT JUMPDEST POP JUMP JUMPDEST PUSH1 0x0 DUP2 CALLDATALOAD SWAP1 POP PUSH2 0x14C DUP2 PUSH2 0x126 JUMP JUMPDEST SWAP3 SWAP2 POP POP JUMP JUMPDEST PUSH1 0x0 PUSH1 0x20 DUP3 DUP5 SUB SLT ISZERO PUSH2 0x168 JUMPI PUSH2 0x167 PUSH2 0x117 JUMP JUMPDEST JUMPDEST PUSH1 0x0 PUSH2 0x176 DUP5 DUP3 DUP6 ADD PUSH2 0x13D JUMP JUMPDEST SWAP2 POP POP SWAP3 SWAP2 POP POP JUMP JUMPDEST PUSH2 0x188 DUP2 PUSH2 0x11C JUMP JUMPDEST DUP3 MSTORE POP POP JUMP JUMPDEST PUSH1 0x0 PUSH1 0x20 DUP3 ADD SWAP1 POP PUSH2 0x1A3 PUSH1 0x0 DUP4 ADD DUP5 PUSH2 0x17F JUMP JUMPDEST SWAP3 SWAP2 POP POP JUMP INVALID LOG2 PUSH5 0x6970667358 0x22 SLT KECCAK256 DUP10 0x2A EXTCODESIZE RETURNDATASIZE 0xE8 LOG0 0xD6 0xE ADDRESS SWAP16 ADD GAS DUP6 PUSH26 0xD70AED9FE4382102CDF4FF5370407BFE380464736F6C63430008 XOR STOP CALLER "
        },
        "methodIdentifiers": {
          "logAccess(uint256)": "5f4c5e50",
          "logUpdate(uint256)": "fe5674bd"
        }
      }
    }
  }
}