{
  "contracts/PatientData.sol": {
    "PatientData": {
      "abi": [
        {
          "anonymous": false,
          "inputs": [
            {
              "indexed": true,
              "internalType": "address",
              "name": "patient",
              "type": "address"
            },
            {
              "indexed": false,
              "internalType": "string",
              "name": "ipfsHash",
              "type": "string"
            }
          ],
          "name": "RecordAdded",
          "type": "event"
        },
        {
          "inputs": [
            {
              "internalType": "string",
              "name": "ipfsHash",
              "type": "string"
            }
          ],
          "name": "addHealthRecord",
          "outputs": [],
          "stateMutability": "nonpayable",
          "type": "function"
        },
        {
          "inputs": [],
          "name": "getHealthRecords",
          "outputs": [
            {
              "internalType": "string[]",
              "name": "",
              "type": "string[]"
            }
          ],
          "stateMutability": "view",
          "type": "function"
        }
      ],
      "evm": {
        "bytecode": {
          "linkReferences": {},
          "object": "608060405234801561001057600080fd5b506108dc806100206000396000f3fe608060405234801561001057600080fd5b50600436106100365760003560e01c80636e591f8d1461003b578063f4080e6014610057575b600080fd5b610055600480360381019061005091906103a6565b610075565b005b61005f610137565b60405161006c9190610530565b60405180910390f35b6000803373ffffffffffffffffffffffffffffffffffffffff1673ffffffffffffffffffffffffffffffffffffffff168152602001908152602001600020819080600181540180825580915050600190039060005260206000200160009091909190915090816100e59190610768565b503373ffffffffffffffffffffffffffffffffffffffff167f44626cfec8a165f72396cc5e247c6b96279f8c205a8d07c390df7aa5806205fa8260405161012c9190610884565b60405180910390a250565b60606000803373ffffffffffffffffffffffffffffffffffffffff1673ffffffffffffffffffffffffffffffffffffffff168152602001908152602001600020805480602002602001604051908101604052809291908181526020016000905b828210156102435783829060005260206000200180546101b690610581565b80601f01602080910402602001604051908101604052809291908181526020018280546101e290610581565b801561022f5780601f106102045761010080835404028352916020019161022f565b820191906000526020600020905b81548152906001019060200180831161021257829003601f168201915b505050505081526020019060010190610197565b50505050905090565b6000604051905090565b600080fd5b600080fd5b600080fd5b600080fd5b6000601f19601f8301169050919050565b7f4e487b7100000000000000000000000000000000000000000000000000000000600052604160045260246000fd5b6102b38261026a565b810181811067ffffffffffffffff821117156102d2576102d161027b565b5b80604052505050565b60006102e561024c565b90506102f182826102aa565b919050565b600067ffffffffffffffff8211156103115761031061027b565b5b61031a8261026a565b9050602081019050919050565b82818337600083830152505050565b6000610349610344846102f6565b6102db565b90508281526020810184848401111561036557610364610265565b5b610370848285610327565b509392505050565b600082601f83011261038d5761038c610260565b5b813561039d848260208601610336565b91505092915050565b6000602082840312156103bc576103bb610256565b5b600082013567ffffffffffffffff8111156103da576103d961025b565b5b6103e684828501610378565b91505092915050565b600081519050919050565b600082825260208201905092915050565b6000819050602082019050919050565b600081519050919050565b600082825260208201905092915050565b60005b8381101561045557808201518184015260208101905061043a565b60008484015250505050565b600061046c8261041b565b6104768185610426565b9350610486818560208601610437565b61048f8161026a565b840191505092915050565b60006104a68383610461565b905092915050565b6000602082019050919050565b60006104c6826103ef565b6104d081856103fa565b9350836020820285016104e28561040b565b8060005b8581101561051e57848403895281516104ff858261049a565b945061050a836104ae565b925060208a019950506001810190506104e6565b50829750879550505050505092915050565b6000602082019050818103600083015261054a81846104bb565b905092915050565b7f4e487b7100000000000000000000000000000000000000000000000000000000600052602260045260246000fd5b6000600282049050600182168061059957607f821691505b6020821081036105ac576105ab610552565b5b50919050565b60008190508160005260206000209050919050565b60006020601f8301049050919050565b600082821b905092915050565b6000600883026106147fffffffffffffffffffffffffffffffffffffffffffffffffffffffffffffffff826105d7565b61061e86836105d7565b95508019841693508086168417925050509392505050565b6000819050919050565b6000819050919050565b600061066561066061065b84610636565b610640565b610636565b9050919050565b6000819050919050565b61067f8361064a565b61069361068b8261066c565b8484546105e4565b825550505050565b600090565b6106a861069b565b6106b3818484610676565b505050565b5b818110156106d7576106cc6000826106a0565b6001810190506106b9565b5050565b601f82111561071c576106ed816105b2565b6106f6846105c7565b81016020851015610705578190505b610719610711856105c7565b8301826106b8565b50505b505050565b600082821c905092915050565b600061073f60001984600802610721565b1980831691505092915050565b6000610758838361072e565b9150826002028217905092915050565b6107718261041b565b67ffffffffffffffff81111561078a5761078961027b565b5b6107948254610581565b61079f8282856106db565b600060209050601f8311600181146107d257600084156107c0578287015190505b6107ca858261074c565b865550610832565b601f1984166107e0866105b2565b60005b82811015610808578489015182556001820191506020850194506020810190506107e3565b868310156108255784890151610821601f89168261072e565b8355505b6001600288020188555050505b505050505050565b600082825260208201905092915050565b60006108568261041b565b610860818561083a565b9350610870818560208601610437565b6108798161026a565b840191505092915050565b6000602082019050818103600083015261089e818461084b565b90509291505056fea2646970667358221220914e025ce91a6a6f2a8e39fbe4466a23a5fef8f34d5935fd4f79580e90de04b464736f6c63430008180033",
          "opcodes": "PUSH1 0x80 PUSH1 0x40 MSTORE CALLVALUE DUP1 ISZERO PUSH2 0x10 JUMPI PUSH1 0x0 DUP1 REVERT JUMPDEST POP PUSH2 0x8DC DUP1 PUSH2 0x20 PUSH1 0x0 CODECOPY PUSH1 0x0 RETURN INVALID PUSH1 0x80 PUSH1 0x40 MSTORE CALLVALUE DUP1 ISZERO PUSH2 0x10 JUMPI PUSH1 0x0 DUP1 REVERT JUMPDEST POP PUSH1 0x4 CALLDATASIZE LT PUSH2 0x36 JUMPI PUSH1 0x0 CALLDATALOAD PUSH1 0xE0 SHR DUP1 PUSH4 0x6E591F8D EQ PUSH2 0x3B JUMPI DUP1 PUSH4 0xF4080E60 EQ PUSH2 0x57 JUMPI JUMPDEST PUSH1 0x0 DUP1 REVERT JUMPDEST PUSH2 0x55 PUSH1 0x4 DUP1 CALLDATASIZE SUB DUP2 ADD SWAP1 PUSH2 0x50 SWAP2 SWAP1 PUSH2 0x3A6 JUMP JUMPDEST PUSH2 0x75 JUMP JUMPDEST STOP JUMPDEST PUSH2 0x5F PUSH2 0x137 JUMP JUMPDEST PUSH1 0x40 MLOAD PUSH2 0x6C SWAP2 SWAP1 PUSH2 0x530 JUMP JUMPDEST PUSH1 0x40 MLOAD DUP1 SWAP2 SUB SWAP1 RETURN JUMPDEST PUSH1 0x0 DUP1 CALLER PUSH20 0xFFFFFFFFFFFFFFFFFFFFFFFFFFFFFFFFFFFFFFFF AND PUSH20 0xFFFFFFFFFFFFFFFFFFFFFFFFFFFFFFFFFFFFFFFF AND DUP2 MSTORE PUSH1 0x20 ADD SWAP1 DUP2 MSTORE PUSH1 0x20 ADD PUSH1 0x0 KECCAK256 DUP2 SWAP1 DUP1 PUSH1 0x1 DUP2 SLOAD ADD DUP1 DUP3 SSTORE DUP1 SWAP2 POP POP PUSH1 0x1 SWAP1 SUB SWAP1 PUSH1 0x0 MSTORE PUSH1 0x20 PUSH1 0x0 KECCAK256 ADD PUSH1 0x0 SWAP1 SWAP2 SWAP1 SWAP2 SWAP1 SWAP2 POP SWAP1 DUP2 PUSH2 0xE5 SWAP2 SWAP1 PUSH2 0x768 JUMP JUMPDEST POP CALLER PUSH20 0xFFFFFFFFFFFFFFFFFFFFFFFFFFFFFFFFFFFFFFFF AND PUSH32 0x44626CFEC8A165F72396CC5E247C6B96279F8C205A8D07C390DF7AA5806205FA DUP3 PUSH1 0x40 MLOAD PUSH2 0x12C SWAP2 SWAP1 PUSH2 0x884 JUMP JUMPDEST PUSH1 0x40 MLOAD DUP1 SWAP2 SUB SWAP1 LOG2 POP JUMP JUMPDEST PUSH1 0x60 PUSH1 0x0 DUP1 CALLER PUSH20 0xFFFFFFFFFFFFFFFFFFFFFFFFFFFFFFFFFFFFFFFF AND PUSH20 0xFFFFFFFFFFFFFFFFFFFFFFFFFFFFFFFFFFFFFFFF AND DUP2 MSTORE PUSH1 0x20 ADD SWAP1 DUP2 MSTORE PUSH1 0x20 ADD PUSH1 0x0 KECCAK256 DUP1 SLOAD DUP1 PUSH1 0x20 MUL PUSH1 0x20 ADD PUSH1 0x40 MLOAD SWAP1 DUP2 ADD PUSH1 0x40 MSTORE DUP1 SWAP3 SWAP2 SWAP1 DUP2 DUP2 MSTORE PUSH1 0x20 ADD PUSH1 0x0 SWAP1 JUMPDEST DUP3 DUP3 LT ISZERO PUSH2 0x243 JUMPI DUP4 DUP3 SWAP1 PUSH1 0x0 MSTORE PUSH1 0x20 PUSH1 0x0 KECCAK256 ADD DUP1 SLOAD PUSH2 0x1B6 SWAP1 PUSH2 0x581 JUMP JUMPDEST DUP1 PUSH1 0x1F ADD PUSH1 0x20 DUP1 SWAP2 DIV MUL PUSH1 0x20 ADD PUSH1 0x40 MLOAD SWAP1 DUP2 ADD PUSH1 0x40 MSTORE DUP1 SWAP3 SWAP2 SWAP1 DUP2 DUP2 MSTORE PUSH1 0x20 ADD DUP3 DUP1 SLOAD PUSH2 0x1E2 SWAP1 PUSH2 0x581 JUMP JUMPDEST DUP1 ISZERO PUSH2 0x22F JUMPI DUP1 PUSH1 0x1F LT PUSH2 0x204 JUMPI PUSH2 0x100 DUP1 DUP4 SLOAD DIV MUL DUP4 MSTORE SWAP2 PUSH1 0x20 ADD SWAP2 PUSH2 0x22F JUMP JUMPDEST DUP3 ADD SWAP2 SWAP1 PUSH1 0x0 MSTORE PUSH1 0x20 PUSH1 0x0 KECCAK256 SWAP1 JUMPDEST DUP2 SLOAD DUP2 MSTORE SWAP1 PUSH1 0x1 ADD SWAP1 PUSH1 0x20 ADD DUP1 DUP4 GT PUSH2 0x212 JUMPI DUP3 SWAP1 SUB PUSH1 0x1F AND DUP3 ADD SWAP2 JUMPDEST POP POP POP POP POP DUP2 MSTORE PUSH1 0x20 ADD SWAP1 PUSH1 0x1 ADD SWAP1 PUSH2 0x197 JUMP JUMPDEST POP POP POP POP SWAP1 POP SWAP1 JUMP JUMPDEST PUSH1 0x0 PUSH1 0x40 MLOAD SWAP1 POP SWAP1 JUMP JUMPDEST PUSH1 0x0 DUP1 REVERT JUMPDEST PUSH1 0x0 DUP1 REVERT JUMPDEST PUSH1 0x0 DUP1 REVERT JUMPDEST PUSH1 0x0 DUP1 REVERT JUMPDEST PUSH1 0x0 PUSH1 0x1F NOT PUSH1 0x1F DUP4 ADD AND SWAP1 POP SWAP2 SWAP1 POP JUMP JUMPDEST PUSH32 0x4E487B7100000000000000000000000000000000000000000000000000000000 PUSH1 0x0 MSTORE PUSH1 0x41 PUSH1 0x4 MSTORE PUSH1 0x24 PUSH1 0x0 REVERT JUMPDEST PUSH2 0x2B3 DUP3 PUSH2 0x26A JUMP JUMPDEST DUP2 ADD DUP2 DUP2 LT PUSH8 0xFFFFFFFFFFFFFFFF DUP3 GT OR ISZERO PUSH2 0x2D2 JUMPI PUSH2 0x2D1 PUSH2 0x27B JUMP JUMPDEST JUMPDEST DUP1 PUSH1 0x40 MSTORE POP POP POP JUMP JUMPDEST PUSH1 0x0 PUSH2 0x2E5 PUSH2 0x24C JUMP JUMPDEST SWAP1 POP PUSH2 0x2F1 DUP3 DUP3 PUSH2 0x2AA JUMP JUMPDEST SWAP2 SWAP1 POP JUMP JUMPDEST PUSH1 0x0 PUSH8 0xFFFFFFFFFFFFFFFF DUP3 GT ISZERO PUSH2 0x311 JUMPI PUSH2 0x310 PUSH2 0x27B JUMP JUMPDEST JUMPDEST PUSH2 0x31A DUP3 PUSH2 0x26A JUMP JUMPDEST SWAP1 POP PUSH1 0x20 DUP2 ADD SWAP1 POP SWAP2 SWAP1 POP JUMP JUMPDEST DUP3 DUP2 DUP4 CALLDATACOPY PUSH1 0x0 DUP4 DUP4 ADD MSTORE POP POP POP JUMP JUMPDEST PUSH1 0x0 PUSH2 0x349 PUSH2 0x344 DUP5 PUSH2 0x2F6 JUMP JUMPDEST PUSH2 0x2DB JUMP JUMPDEST SWAP1 POP DUP3 DUP2 MSTORE PUSH1 0x20 DUP2 ADD DUP5 DUP5 DUP5 ADD GT ISZERO PUSH2 0x365 JUMPI PUSH2 0x364 PUSH2 0x265 JUMP JUMPDEST JUMPDEST PUSH2 0x370 DUP5 DUP3 DUP6 PUSH2 0x327 JUMP JUMPDEST POP SWAP4 SWAP3 POP POP POP JUMP JUMPDEST PUSH1 0x0 DUP3 PUSH1 0x1F DUP4 ADD SLT PUSH2 0x38D JUMPI PUSH2 0x38C PUSH2 0x260 JUMP JUMPDEST JUMPDEST DUP2 CALLDATALOAD PUSH2 0x39D DUP5 DUP3 PUSH1 0x20 DUP7 ADD PUSH2 0x336 JUMP JUMPDEST SWAP2 POP POP SWAP3 SWAP2 POP POP JUMP JUMPDEST PUSH1 0x0 PUSH1 0x20 DUP3 DUP5 SUB SLT ISZERO PUSH2 0x3BC JUMPI PUSH2 0x3BB PUSH2 0x256 JUMP JUMPDEST JUMPDEST PUSH1 0x0 DUP3 ADD CALLDATALOAD PUSH8 0xFFFFFFFFFFFFFFFF DUP2 GT ISZERO PUSH2 0x3DA JUMPI PUSH2 0x3D9 PUSH2 0x25B JUMP JUMPDEST JUMPDEST PUSH2 0x3E6 DUP5 DUP3 DUP6 ADD PUSH2 0x378 JUMP JUMPDEST SWAP2 POP POP SWAP3 SWAP2 POP POP JUMP JUMPDEST PUSH1 0x0 DUP2 MLOAD SWAP1 POP SWAP2 SWAP1 POP JUMP JUMPDEST PUSH1 0x0 DUP3 DUP3 MSTORE PUSH1 0x20 DUP3 ADD SWAP1 POP SWAP3 SWAP2 POP POP JUMP JUMPDEST PUSH1 0x0 DUP2 SWAP1 POP PUSH1 0x20 DUP3 ADD SWAP1 POP SWAP2 SWAP1 POP JUMP JUMPDEST PUSH1 0x0 DUP2 MLOAD SWAP1 POP SWAP2 SWAP1 POP JUMP JUMPDEST PUSH1 0x0 DUP3 DUP3 MSTORE PUSH1 0x20 DUP3 ADD SWAP1 POP SWAP3 SWAP2 POP POP JUMP JUMPDEST PUSH1 0x0 JUMPDEST DUP4 DUP2 LT ISZERO PUSH2 0x455 JUMPI DUP1 DUP3 ADD MLOAD DUP2 DUP5 ADD MSTORE PUSH1 0x20 DUP2 ADD SWAP1 POP PUSH2 0x43A JUMP JUMPDEST PUSH1 0x0 DUP5 DUP5 ADD MSTORE POP POP POP POP JUMP JUMPDEST PUSH1 0x0 PUSH2 0x46C DUP3 PUSH2 0x41B JUMP JUMPDEST PUSH2 0x476 DUP2 DUP6 PUSH2 0x426 JUMP JUMPDEST SWAP4 POP PUSH2 0x486 DUP2 DUP6 PUSH1 0x20 DUP7 ADD PUSH2 0x437 JUMP JUMPDEST PUSH2 0x48F DUP2 PUSH2 0x26A JUMP JUMPDEST DUP5 ADD SWAP2 POP POP SWAP3 SWAP2 POP POP JUMP JUMPDEST PUSH1 0x0 PUSH2 0x4A6 DUP4 DUP4 PUSH2 0x461 JUMP JUMPDEST SWAP1 POP SWAP3 SWAP2 POP POP JUMP JUMPDEST PUSH1 0x0 PUSH1 0x20 DUP3 ADD SWAP1 POP SWAP2 SWAP1 POP JUMP JUMPDEST PUSH1 0x0 PUSH2 0x4C6 DUP3 PUSH2 0x3EF JUMP JUMPDEST PUSH2 0x4D0 DUP2 DUP6 PUSH2 0x3FA JUMP JUMPDEST SWAP4 POP DUP4 PUSH1 0x20 DUP3 MUL DUP6 ADD PUSH2 0x4E2 DUP6 PUSH2 0x40B JUMP JUMPDEST DUP1 PUSH1 0x0 JUMPDEST DUP6 DUP2 LT ISZERO PUSH2 0x51E JUMPI DUP5 DUP5 SUB DUP10 MSTORE DUP2 MLOAD PUSH2 0x4FF DUP6 DUP3 PUSH2 0x49A JUMP JUMPDEST SWAP5 POP PUSH2 0x50A DUP4 PUSH2 0x4AE JUMP JUMPDEST SWAP3 POP PUSH1 0x20 DUP11 ADD SWAP10 POP POP PUSH1 0x1 DUP2 ADD SWAP1 POP PUSH2 0x4E6 JUMP JUMPDEST POP DUP3 SWAP8 POP DUP8 SWAP6 POP POP POP POP POP POP SWAP3 SWAP2 POP POP JUMP JUMPDEST PUSH1 0x0 PUSH1 0x20 DUP3 ADD SWAP1 POP DUP2 DUP2 SUB PUSH1 0x0 DUP4 ADD MSTORE PUSH2 0x54A DUP2 DUP5 PUSH2 0x4BB JUMP JUMPDEST SWAP1 POP SWAP3 SWAP2 POP POP JUMP JUMPDEST PUSH32 0x4E487B7100000000000000000000000000000000000000000000000000000000 PUSH1 0x0 MSTORE PUSH1 0x22 PUSH1 0x4 MSTORE PUSH1 0x24 PUSH1 0x0 REVERT JUMPDEST PUSH1 0x0 PUSH1 0x2 DUP3 DIV SWAP1 POP PUSH1 0x1 DUP3 AND DUP1 PUSH2 0x599 JUMPI PUSH1 0x7F DUP3 AND SWAP2 POP JUMPDEST PUSH1 0x20 DUP3 LT DUP2 SUB PUSH2 0x5AC JUMPI PUSH2 0x5AB PUSH2 0x552 JUMP JUMPDEST JUMPDEST POP SWAP2 SWAP1 POP JUMP JUMPDEST PUSH1 0x0 DUP2 SWAP1 POP DUP2 PUSH1 0x0 MSTORE PUSH1 0x20 PUSH1 0x0 KECCAK256 SWAP1 POP SWAP2 SWAP1 POP JUMP JUMPDEST PUSH1 0x0 PUSH1 0x20 PUSH1 0x1F DUP4 ADD DIV SWAP1 POP SWAP2 SWAP1 POP JUMP JUMPDEST PUSH1 0x0 DUP3 DUP3 SHL SWAP1 POP SWAP3 SWAP2 POP POP JUMP JUMPDEST PUSH1 0x0 PUSH1 0x8 DUP4 MUL PUSH2 0x614 PUSH32 0xFFFFFFFFFFFFFFFFFFFFFFFFFFFFFFFFFFFFFFFFFFFFFFFFFFFFFFFFFFFFFFFF DUP3 PUSH2 0x5D7 JUMP JUMPDEST PUSH2 0x61E DUP7 DUP4 PUSH2 0x5D7 JUMP JUMPDEST SWAP6 POP DUP1 NOT DUP5 AND SWAP4 POP DUP1 DUP7 AND DUP5 OR SWAP3 POP POP POP SWAP4 SWAP3 POP POP POP JUMP JUMPDEST PUSH1 0x0 DUP2 SWAP1 POP SWAP2 SWAP1 POP JUMP JUMPDEST PUSH1 0x0 DUP2 SWAP1 POP SWAP2 SWAP1 POP JUMP JUMPDEST PUSH1 0x0 PUSH2 0x665 PUSH2 0x660 PUSH2 0x65B DUP5 PUSH2 0x636 JUMP JUMPDEST PUSH2 0x640 JUMP JUMPDEST PUSH2 0x636 JUMP JUMPDEST SWAP1 POP SWAP2 SWAP1 POP JUMP JUMPDEST PUSH1 0x0 DUP2 SWAP1 POP SWAP2 SWAP1 POP JUMP JUMPDEST PUSH2 0x67F DUP4 PUSH2 0x64A JUMP JUMPDEST PUSH2 0x693 PUSH2 0x68B DUP3 PUSH2 0x66C JUMP JUMPDEST DUP5 DUP5 SLOAD PUSH2 0x5E4 JUMP JUMPDEST DUP3 SSTORE POP POP POP POP JUMP JUMPDEST PUSH1 0x0 SWAP1 JUMP JUMPDEST PUSH2 0x6A8 PUSH2 0x69B JUMP JUMPDEST PUSH2 0x6B3 DUP2 DUP5 DUP5 PUSH2 0x676 JUMP JUMPDEST POP POP POP JUMP JUMPDEST JUMPDEST DUP2 DUP2 LT ISZERO PUSH2 0x6D7 JUMPI PUSH2 0x6CC PUSH1 0x0 DUP3 PUSH2 0x6A0 JUMP JUMPDEST PUSH1 0x1 DUP2 ADD SWAP1 POP PUSH2 0x6B9 JUMP JUMPDEST POP POP JUMP JUMPDEST PUSH1 0x1F DUP3 GT ISZERO PUSH2 0x71C JUMPI PUSH2 0x6ED DUP2 PUSH2 0x5B2 JUMP JUMPDEST PUSH2 0x6F6 DUP5 PUSH2 0x5C7 JUMP JUMPDEST DUP2 ADD PUSH1 0x20 DUP6 LT ISZERO PUSH2 0x705 JUMPI DUP2 SWAP1 POP JUMPDEST PUSH2 0x719 PUSH2 0x711 DUP6 PUSH2 0x5C7 JUMP JUMPDEST DUP4 ADD DUP3 PUSH2 0x6B8 JUMP JUMPDEST POP POP JUMPDEST POP POP POP JUMP JUMPDEST PUSH1 0x0 DUP3 DUP3 SHR SWAP1 POP SWAP3 SWAP2 POP POP JUMP JUMPDEST PUSH1 0x0 PUSH2 0x73F PUSH1 0x0 NOT DUP5 PUSH1 0x8 MUL PUSH2 0x721 JUMP JUMPDEST NOT DUP1 DUP4 AND SWAP2 POP POP SWAP3 SWAP2 POP POP JUMP JUMPDEST PUSH1 0x0 PUSH2 0x758 DUP4 DUP4 PUSH2 0x72E JUMP JUMPDEST SWAP2 POP DUP3 PUSH1 0x2 MUL DUP3 OR SWAP1 POP SWAP3 SWAP2 POP POP JUMP JUMPDEST PUSH2 0x771 DUP3 PUSH2 0x41B JUMP JUMPDEST PUSH8 0xFFFFFFFFFFFFFFFF DUP2 GT ISZERO PUSH2 0x78A JUMPI PUSH2 0x789 PUSH2 0x27B JUMP JUMPDEST JUMPDEST PUSH2 0x794 DUP3 SLOAD PUSH2 0x581 JUMP JUMPDEST PUSH2 0x79F DUP3 DUP3 DUP6 PUSH2 0x6DB JUMP JUMPDEST PUSH1 0x0 PUSH1 0x20 SWAP1 POP PUSH1 0x1F DUP4 GT PUSH1 0x1 DUP2 EQ PUSH2 0x7D2 JUMPI PUSH1 0x0 DUP5 ISZERO PUSH2 0x7C0 JUMPI DUP3 DUP8 ADD MLOAD SWAP1 POP JUMPDEST PUSH2 0x7CA DUP6 DUP3 PUSH2 0x74C JUMP JUMPDEST DUP7 SSTORE POP PUSH2 0x832 JUMP JUMPDEST PUSH1 0x1F NOT DUP5 AND PUSH2 0x7E0 DUP7 PUSH2 0x5B2 JUMP JUMPDEST PUSH1 0x0 JUMPDEST DUP3 DUP2 LT ISZERO PUSH2 0x808 JUMPI DUP5 DUP10 ADD MLOAD DUP3 SSTORE PUSH1 0x1 DUP3 ADD SWAP2 POP PUSH1 0x20 DUP6 ADD SWAP5 POP PUSH1 0x20 DUP2 ADD SWAP1 POP PUSH2 0x7E3 JUMP JUMPDEST DUP7 DUP4 LT ISZERO PUSH2 0x825 JUMPI DUP5 DUP10 ADD MLOAD PUSH2 0x821 PUSH1 0x1F DUP10 AND DUP3 PUSH2 0x72E JUMP JUMPDEST DUP4 SSTORE POP JUMPDEST PUSH1 0x1 PUSH1 0x2 DUP9 MUL ADD DUP9 SSTORE POP POP POP JUMPDEST POP POP POP POP POP POP JUMP JUMPDEST PUSH1 0x0 DUP3 DUP3 MSTORE PUSH1 0x20 DUP3 ADD SWAP1 POP SWAP3 SWAP2 POP POP JUMP JUMPDEST PUSH1 0x0 PUSH2 0x856 DUP3 PUSH2 0x41B JUMP JUMPDEST PUSH2 0x860 DUP2 DUP6 PUSH2 0x83A JUMP JUMPDEST SWAP4 POP PUSH2 0x870 DUP2 DUP6 PUSH1 0x20 DUP7 ADD PUSH2 0x437 JUMP JUMPDEST PUSH2 0x879 DUP2 PUSH2 0x26A JUMP JUMPDEST DUP5 ADD SWAP2 POP POP SWAP3 SWAP2 POP POP JUMP JUMPDEST PUSH1 0x0 PUSH1 0x20 DUP3 ADD SWAP1 POP DUP2 DUP2 SUB PUSH1 0x0 DUP4 ADD MSTORE PUSH2 0x89E DUP2 DUP5 PUSH2 0x84B JUMP JUMPDEST SWAP1 POP SWAP3 SWAP2 POP POP JUMP INVALID LOG2 PUSH5 0x6970667358 0x22 SLT KECCAK256 SWAP2 0x4E MUL TLOAD 0xE9 BYTE PUSH11 0x6F2A8E39FBE4466A23A5FE 0xF8 RETURN 0x4D MSIZE CALLDATALOAD REVERT 0x4F PUSH26 0x580E90DE04B464736F6C63430008180033000000000000000000 "
        },
        "methodIdentifiers": {
          "addHealthRecord(string)": "6e591f8d",
          "getHealthRecords()": "f4080e60"
        }
      }
    }
  }
}