{
  "_format": "hh-sol-artifact-1",
  "contractName": "PatientData",
  "sourceName": "contracts/PatientData.sol",
  "abi": [
    {
      "anonymous": false,
      "inputs": [
        {
          "indexed": true,
          "internalType": "address",
          "name": "patient",
          "type": "address"
        },
        {
          "indexed": false,
          "internalType": "string",
          "name": "ipfsHash",
          "type": "string"
        }
      ],
      "name": "RecordAdded",
      "type": "event"
    },
    {
      "inputs": [
        {
          "internalType": "string",
          "name": "ipfsHash",
          "type": "string"
        }
      ],
      "name": "addHealthRecord",
      "outputs": [],
      "stateMutability": "nonpayable",
      "type": "function"
    },
    {
      "inputs": [],
      "name": "getHealthRecords",
      "outputs": [
        {
          "internalType": "string[]",
          "name": "",
          "type": "string[]"
        }
      ],
      "stateMutability": "view",
      "type": "function"
    }
  ],
  "bytecode": "0x608060405234801561001057600080fd5b506108dc806100206000396000f3fe608060405234801561001057600080fd5b50600436106100365760003560e01c80636e591f8d1461003b578063f4080e6014610057575b600080fd5b610055600480360381019061005091906103a6565b610075565b005b61005f610137565b60405161006c9190610530565b60405180910390f35b6000803373ffffffffffffffffffffffffffffffffffffffff1673ffffffffffffffffffffffffffffffffffffffff168152602001908152602001600020819080600181540180825580915050600190039060005260206000200160009091909190915090816100e59190610768565b503373ffffffffffffffffffffffffffffffffffffffff167f44626cfec8a165f72396cc5e247c6b96279f8c205a8d07c390df7aa5806205fa8260405161012c9190610884565b60405180910390a250565b60606000803373ffffffffffffffffffffffffffffffffffffffff1673ffffffffffffffffffffffffffffffffffffffff168152602001908152602001600020805480602002602001604051908101604052809291908181526020016000905b828210156102435783829060005260206000200180546101b690610581565b80601f01602080910402602001604051908101604052809291908181526020018280546101e290610581565b801561022f5780601f106102045761010080835404028352916020019161022f565b820191906000526020600020905b81548152906001019060200180831161021257829003601f168201915b505050505081526020019060010190610197565b50505050905090565b6000604051905090565b600080fd5b600080fd5b600080fd5b600080fd5b6000601f19601f8301169050919050565b7f4e487b7100000000000000000000000000000000000000000000000000000000600052604160045260246000fd5b6102b38261026a565b810181811067ffffffffffffffff821117156102d2576102d161027b565b5b80604052505050565b60006102e561024c565b90506102f182826102aa565b919050565b600067ffffffffffffffff8211156103115761031061027b565b5b61031a8261026a565b9050602081019050919050565b82818337600083830152505050565b6000610349610344846102f6565b6102db565b90508281526020810184848401111561036557610364610265565b5b610370848285610327565b509392505050565b600082601f83011261038d5761038c610260565b5b813561039d848260208601610336565b91505092915050565b6000602082840312156103bc576103bb610256565b5b600082013567ffffffffffffffff8111156103da576103d961025b565b5b6103e684828501610378565b91505092915050565b600081519050919050565b600082825260208201905092915050565b6000819050602082019050919050565b600081519050919050565b600082825260208201905092915050565b60005b8381101561045557808201518184015260208101905061043a565b60008484015250505050565b600061046c8261041b565b6104768185610426565b9350610486818560208601610437565b61048f8161026a565b840191505092915050565b60006104a68383610461565b905092915050565b6000602082019050919050565b60006104c6826103ef565b6104d081856103fa565b9350836020820285016104e28561040b565b8060005b8581101561051e57848403895281516104ff858261049a565b945061050a836104ae565b925060208a019950506001810190506104e6565b50829750879550505050505092915050565b6000602082019050818103600083015261054a81846104bb565b905092915050565b7f4e487b7100000000000000000000000000000000000000000000000000000000600052602260045260246000fd5b6000600282049050600182168061059957607f821691505b6020821081036105ac576105ab610552565b5b50919050565b60008190508160005260206000209050919050565b60006020601f8301049050919050565b600082821b905092915050565b6000600883026106147fffffffffffffffffffffffffffffffffffffffffffffffffffffffffffffffff826105d7565b61061e86836105d7565b95508019841693508086168417925050509392505050565b6000819050919050565b6000819050919050565b600061066561066061065b84610636565b610640565b610636565b9050919050565b6000819050919050565b61067f8361064a565b61069361068b8261066c565b8484546105e4565b825550505050565b600090565b6106a861069b565b6106b3818484610676565b505050565b5b818110156106d7576106cc6000826106a0565b6001810190506106b9565b5050565b601f82111561071c576106ed816105b2565b6106f6846105c7565b81016020851015610705578190505b610719610711856105c7565b8301826106b8565b50505b505050565b600082821c905092915050565b600061073f60001984600802610721565b1980831691505092915050565b6000610758838361072e565b9150826002028217905092915050565b6107718261041b565b67ffffffffffffffff81111561078a5761078961027b565b5b6107948254610581565b61079f8282856106db565b600060209050601f8311600181146107d257600084156107c0578287015190505b6107ca858261074c565b865550610832565b601f1984166107e0866105b2565b60005b82811015610808578489015182556001820191506020850194506020810190506107e3565b868310156108255784890151610821601f89168261072e565b8355505b6001600288020188555050505b505050505050565b600082825260208201905092915050565b60006108568261041b565b610860818561083a565b9350610870818560208601610437565b6108798161026a565b840191505092915050565b6000602082019050818103600083015261089e818461084b565b90509291505056fea2646970667358221220914e025ce91a6a6f2a8e39fbe4466a23a5fef8f34d5935fd4f79580e90de04b464736f6c63430008180033",
  "linkReferences": {},
  "deployedLinkReferences": {}
}