{
  "_format": "hh-sol-artifact-1",
  "contractName": "AuditTrailContract",
  "sourceName": "contracts/AuditTrailContract.sol",
  "abi": [
    {
      "anonymous": false,
      "inputs": [
        {
          "indexed": true,
          "internalType": "uint256",
          "name": "patientId",
          "type": "uint256"
        },
        {
          "indexed": true,
          "internalType": "address",
          "name": "accessedBy",
          "type": "address"
        },
        {
          "indexed": false,
          "internalType": "uint256",
          "name": "timestamp",
          "type": "uint256"
        }
      ],
      "name": "RecordAccessed",
      "type": "event"
    },
    {
      "anonymous": false,
      "inputs": [
        {
          "indexed": true,
          "internalType": "uint256",
          "name": "patientId",
          "type": "uint256"
        },
        {
          "indexed": true,
          "internalType": "address",
          "name": "updatedBy",
          "type": "address"
        },
        {
          "indexed": false,
          "internalType": "uint256",
          "name": "timestamp",
          "type": "uint256"
        }
      ],
      "name": "RecordUpdated",
      "type": "event"
    },
    {
      "inputs": [
        {
          "internalType": "uint256",
          "name": "patientId",
          "type": "uint256"
        }
      ],
      "name": "logAccess",
      "outputs": [],
      "stateMutability": "nonpayable",
      "type": "function"
    },
    {
      "inputs": [
        {
          "internalType": "uint256",
          "name": "patientId",
          "type": "uint256"
        }
      ],
      "name": "logUpdate",
      "outputs": [],
      "stateMutability": "nonpayable",
      "type": "function"
    }
  ],
  "bytecode": "0x608060405234801561001057600080fd5b506101df806100206000396000f3fe608060405234801561001057600080fd5b50600436106100365760003560e01c80635f4c5e501461003b578063fe5674bd14610057575b600080fd5b61005560048036038101906100509190610152565b610073565b005b610071600480360381019061006c9190610152565b6100c5565b005b3373ffffffffffffffffffffffffffffffffffffffff16817fdec39eb35dc9ca96737e4515f8a70f5db122e248213ee947b996e1f678ab05b8426040516100ba919061018e565b60405180910390a350565b3373ffffffffffffffffffffffffffffffffffffffff16817f496727e7ed521ba2a42c2bcf87faf2235c5a92e559d1263a411fea7762f4f2604260405161010c919061018e565b60405180910390a350565b600080fd5b6000819050919050565b61012f8161011c565b811461013a57600080fd5b50565b60008135905061014c81610126565b92915050565b60006020828403121561016857610167610117565b5b60006101768482850161013d565b91505092915050565b6101888161011c565b82525050565b60006020820190506101a3600083018461017f565b9291505056fea2646970667358221220892a3b3de8a0d60e309f015a8579d70aed9fe4382102cdf4ff5370407bfe380464736f6c63430008180033",
  "linkReferences": {},
  "deployedLinkReferences": {}
}