{
  "_format": "hh-sol-artifact-1",
  "contractName": "ConsentManagement",
  "sourceName": "contracts/ConsentManagement.sol",
  "abi": [
    {
      "anonymous": false,
      "inputs": [
        {
          "indexed": true,
          "internalType": "address",
          "name": "patient",
          "type": "address"
        },
        {
          "indexed": true,
          "internalType": "address",
          "name": "viewer",
          "type": "address"
        },
        {
          "indexed": false,
          "internalType": "bool",
          "name": "consentStatus",
          "type": "bool"
        }
      ],
      "name": "ConsentUpdated",
      "type": "event"
    },
    {
      "inputs": [
        {
          "internalType": "address",
          "name": "patient",
          "type": "address"
        },
        {
          "internalType": "address",
          "name": "viewer",
          "type": "address"
        }
      ],
      "name": "checkConsent",
      "outputs": [
        {
          "internalType": "bool",
          "name": "",
          "type": "bool"
        }
      ],
      "stateMutability": "view",
      "type": "function"
    },
    {
      "inputs": [
        {
          "internalType": "address",
          "name": "",
          "type": "address"
        },
        {
          "internalType": "address",
          "name": "",
          "type": "address"
        }
      ],
      "name": "consentGiven",
      "outputs": [
        {
          "internalType": "bool",
          "name": "",
          "type": "bool"
        }
      ],
      "stateMutability": "view",
      "type": "function"
    },
    {
      "inputs": [
        {
          "internalType": "address",
          "name": "viewer",
          "type": "address"
        }
      ],
      "name": "giveConsent",
      "outputs": [],
      "stateMutability": "nonpayable",
      "type": "function"
    },
    {
      "inputs": [
        {
          "internalType": "address",
          "name": "viewer",
          "type": "address"
        }
      ],
      "name": "revokeConsent",
      "outputs": [],
      "stateMutability": "nonpayable",
      "type": "function"
    }
  ],
  "bytecode": "0x608060405234801561001057600080fd5b506104e1806100206000396000f3fe608060405234801561001057600080fd5b506004361061004c5760003560e01c80631ab64e4b1461005157806350b1f11b14610081578063799cb1c2146100b1578063d1a48627146100cd575b600080fd5b61006b60048036038101906100669190610408565b6100e9565b6040516100789190610463565b60405180910390f35b61009b60048036038101906100969190610408565b61017c565b6040516100a89190610463565b60405180910390f35b6100cb60048036038101906100c6919061047e565b6101ab565b005b6100e760048036038101906100e2919061047e565b6102a8565b005b60008060008473ffffffffffffffffffffffffffffffffffffffff1673ffffffffffffffffffffffffffffffffffffffff16815260200190815260200160002060008373ffffffffffffffffffffffffffffffffffffffff1673ffffffffffffffffffffffffffffffffffffffff16815260200190815260200160002060009054906101000a900460ff16905092915050565b60006020528160005260406000206020528060005260406000206000915091509054906101000a900460ff1681565b60016000803373ffffffffffffffffffffffffffffffffffffffff1673ffffffffffffffffffffffffffffffffffffffff16815260200190815260200160002060008373ffffffffffffffffffffffffffffffffffffffff1673ffffffffffffffffffffffffffffffffffffffff16815260200190815260200160002060006101000a81548160ff0219169083151502179055508073ffffffffffffffffffffffffffffffffffffffff163373ffffffffffffffffffffffffffffffffffffffff167f0749293cdd24194bfc5a2b093e1784cdba8b1f511563750caa49bb0e4581f420600160405161029d9190610463565b60405180910390a350565b60008060003373ffffffffffffffffffffffffffffffffffffffff1673ffffffffffffffffffffffffffffffffffffffff16815260200190815260200160002060008373ffffffffffffffffffffffffffffffffffffffff1673ffffffffffffffffffffffffffffffffffffffff16815260200190815260200160002060006101000a81548160ff0219169083151502179055508073ffffffffffffffffffffffffffffffffffffffff163373ffffffffffffffffffffffffffffffffffffffff167f0749293cdd24194bfc5a2b093e1784cdba8b1f511563750caa49bb0e4581f420600060405161039a9190610463565b60405180910390a350565b600080fd5b600073ffffffffffffffffffffffffffffffffffffffff82169050919050565b60006103d5826103aa565b9050919050565b6103e5816103ca565b81146103f057600080fd5b50565b600081359050610402816103dc565b92915050565b6000806040838503121561041f5761041e6103a5565b5b600061042d858286016103f3565b925050602061043e858286016103f3565b9150509250929050565b60008115159050919050565b61045d81610448565b82525050565b60006020820190506104786000830184610454565b92915050565b600060208284031215610494576104936103a5565b5b60006104a2848285016103f3565b9150509291505056fea264697066735822122017d46693170893383059b725ce713a404d27cef9447238f9eb1577ae07665bcd64736f6c63430008180033",
  "linkReferences": {},
  "deployedLinkReferences": {}
}